{
  "contractName": "LotteryContract",
  "abi": [
    {
      "inputs": [
        {
          "internalType": "uint256",
          "name": "lotteryAmount",
          "type": "uint256"
        },
        {
          "internalType": "uint64",
          "name": "maxAnnounceTimeInSeconds",
          "type": "uint64"
        },
        {
          "internalType": "uint8",
          "name": "defaultMaxWinners",
          "type": "uint8"
        }
      ],
      "stateMutability": "nonpayable",
      "type": "constructor"
    },
    {
      "anonymous": false,
      "inputs": [
        {
          "indexed": false,
          "internalType": "uint256",
          "name": "currentParticipant",
          "type": "uint256"
        },
        {
          "indexed": false,
          "internalType": "uint256",
          "name": "lotteryAmount",
          "type": "uint256"
        },
        {
          "indexed": false,
          "internalType": "address",
          "name": "participant",
          "type": "address"
        }
      ],
      "name": "LotteryBought",
      "type": "event"
    },
    {
      "anonymous": false,
      "inputs": [
        {
          "indexed": true,
          "internalType": "address",
          "name": "previousOwner",
          "type": "address"
        },
        {
          "indexed": true,
          "internalType": "address",
          "name": "newOwner",
          "type": "address"
        }
      ],
      "name": "OwnershipTransferred",
      "type": "event"
    },
    {
      "anonymous": false,
      "inputs": [
        {
          "indexed": false,
          "internalType": "address",
          "name": "to",
          "type": "address"
        },
        {
          "indexed": false,
          "internalType": "uint256",
          "name": "amount",
          "type": "uint256"
        },
        {
          "indexed": false,
          "internalType": "address",
          "name": "token",
          "type": "address"
        }
      ],
      "name": "Reward",
      "type": "event"
    },
    {
      "anonymous": false,
      "inputs": [
        {
          "components": [
            {
              "internalType": "address",
              "name": "participant",
              "type": "address"
            },
            {
              "internalType": "uint256",
              "name": "winningAmout",
              "type": "uint256"
            }
          ],
          "indexed": false,
          "internalType": "struct LotteryContract.Participant[]",
          "name": "winner",
          "type": "tuple[]"
        }
      ],
      "name": "WinnersList",
      "type": "event"
    },
    {
      "inputs": [],
      "name": "owner",
      "outputs": [
        {
          "internalType": "address",
          "name": "",
          "type": "address"
        }
      ],
      "stateMutability": "view",
      "type": "function"
    },
    {
      "inputs": [],
      "name": "renounceOwnership",
      "outputs": [],
      "stateMutability": "nonpayable",
      "type": "function"
    },
    {
      "inputs": [
        {
          "internalType": "address",
          "name": "newOwner",
          "type": "address"
        }
      ],
      "name": "transferOwnership",
      "outputs": [],
      "stateMutability": "nonpayable",
      "type": "function"
    },
    {
      "inputs": [
        {
          "internalType": "address",
          "name": "token",
          "type": "address"
        }
      ],
      "name": "buyLottery",
      "outputs": [],
      "stateMutability": "nonpayable",
      "type": "function"
    },
    {
      "inputs": [
        {
          "internalType": "address",
          "name": "token",
          "type": "address"
        }
      ],
      "name": "checkRules",
      "outputs": [],
      "stateMutability": "nonpayable",
      "type": "function"
    },
    {
      "inputs": [],
      "name": "getTotalTokenCount",
      "outputs": [
        {
          "internalType": "uint256",
          "name": "",
          "type": "uint256"
        }
      ],
      "stateMutability": "view",
      "type": "function"
    },
    {
      "inputs": [
        {
          "internalType": "uint256",
          "name": "number",
          "type": "uint256"
        }
      ],
      "name": "getToken",
      "outputs": [
        {
          "internalType": "address",
          "name": "",
          "type": "address"
        }
      ],
      "stateMutability": "view",
      "type": "function"
    },
    {
      "inputs": [
        {
          "internalType": "address",
          "name": "token",
          "type": "address"
        }
      ],
      "name": "getCurrentLotteryNumber",
      "outputs": [
        {
          "internalType": "uint256",
          "name": "",
          "type": "uint256"
        }
      ],
      "stateMutability": "view",
      "type": "function"
    },
    {
      "inputs": [
        {
          "internalType": "address",
          "name": "token",
          "type": "address"
        },
        {
          "internalType": "uint256",
          "name": "lotteryNumber",
          "type": "uint256"
        }
      ],
      "name": "getDetails",
      "outputs": [
        {
          "internalType": "uint256",
          "name": "totalFund",
          "type": "uint256"
        },
        {
          "internalType": "uint256",
          "name": "totalParticipants",
          "type": "uint256"
        },
        {
          "components": [
            {
              "internalType": "address",
              "name": "participant",
              "type": "address"
            },
            {
              "internalType": "uint256",
              "name": "winningAmout",
              "type": "uint256"
            }
          ],
          "internalType": "struct LotteryContract.Participant[]",
          "name": "participants",
          "type": "tuple[]"
        },
        {
          "internalType": "uint256",
          "name": "lotteryStartedTime",
          "type": "uint256"
        }
      ],
      "stateMutability": "view",
      "type": "function"
    },
    {
      "inputs": [
        {
          "internalType": "address",
          "name": "token",
          "type": "address"
        }
      ],
      "name": "withdrawEther",
      "outputs": [],
      "stateMutability": "nonpayable",
      "type": "function"
    }
  ],
  "bytecode": "0x60806040523480156200001157600080fd5b5060405162002a1238038062002a12833981810160405281019062000037919062000180565b6000620000496200013360201b60201c565b9050806000806101000a81548173ffffffffffffffffffffffffffffffffffffffff021916908373ffffffffffffffffffffffffffffffffffffffff1602179055508073ffffffffffffffffffffffffffffffffffffffff16600073ffffffffffffffffffffffffffffffffffffffff167f8be0079c531659141344cd1fd0a4f28419497f9722a3daafe3b4186f6b6457e060405160405180910390a350826002819055508167ffffffffffffffff1660038190555080600460006101000a81548160ff021916908360ff160217905550600160058190555060006006819055505050506200024f565b600033905090565b6000815190506200014c8162000201565b92915050565b60008151905062000163816200021b565b92915050565b6000815190506200017a8162000235565b92915050565b6000806000606084860312156200019657600080fd5b6000620001a6868287016200013b565b9350506020620001b98682870162000152565b9250506040620001cc8682870162000169565b9150509250925092565b6000819050919050565b600067ffffffffffffffff82169050919050565b600060ff82169050919050565b6200020c81620001d6565b81146200021857600080fd5b50565b6200022681620001e0565b81146200023257600080fd5b50565b6200024081620001f4565b81146200024c57600080fd5b50565b6127b3806200025f6000396000f3fe608060405234801561001057600080fd5b506004361061009e5760003560e01c8063bb49224511610066578063bb49224514610133578063d099a1671461014f578063e4b50cb814610182578063e5362667146101b2578063f2fde38b146101d05761009e565b8063154b88ef146100a3578063715018a6146100d35780638da5cb5b146100dd578063a2464653146100fb578063af933b5714610117575b600080fd5b6100bd60048036038101906100b89190612039565b6101ec565b6040516100ca91906124c5565b60405180910390f35b6100db610235565b005b6100e56103a2565b6040516100f291906123a8565b60405180910390f35b61011560048036038101906101109190612039565b6103cb565b005b610131600480360381019061012c9190612039565b6107a6565b005b61014d60048036038101906101489190612039565b610974565b005b61016960048036038101906101649190612062565b610f6f565b6040516101799493929190612517565b60405180910390f35b61019c600480360381019061019791906120c7565b61119b565b6040516101a991906123a8565b60405180910390f35b6101ba6111d8565b6040516101c791906124c5565b60405180910390f35b6101ea60048036038101906101e59190612039565b6111e2565b005b6000600160008373ffffffffffffffffffffffffffffffffffffffff1673ffffffffffffffffffffffffffffffffffffffff168152602001908152602001600020549050919050565b61023d6113d4565b73ffffffffffffffffffffffffffffffffffffffff1661025b6103a2565b73ffffffffffffffffffffffffffffffffffffffff16146102e4576040517f08c379a00000000000000000000000000000000000000000000000000000000081526004018080602001828103825260208152602001807f4f776e61626c653a2063616c6c6572206973206e6f7420746865206f776e657281525060200191505060405180910390fd5b600073ffffffffffffffffffffffffffffffffffffffff1660008054906101000a900473ffffffffffffffffffffffffffffffffffffffff1673ffffffffffffffffffffffffffffffffffffffff167f8be0079c531659141344cd1fd0a4f28419497f9722a3daafe3b4186f6b6457e060405160405180910390a360008060006101000a81548173ffffffffffffffffffffffffffffffffffffffff021916908373ffffffffffffffffffffffffffffffffffffffff160217905550565b60008060009054906101000a900473ffffffffffffffffffffffffffffffffffffffff16905090565b6000600160008373ffffffffffffffffffffffffffffffffffffffff1673ffffffffffffffffffffffffffffffffffffffff1681526020019081526020016000205414156104585760018060008373ffffffffffffffffffffffffffffffffffffffff1673ffffffffffffffffffffffffffffffffffffffff168152602001908152602001600020819055505b6000600960008373ffffffffffffffffffffffffffffffffffffffff1673ffffffffffffffffffffffffffffffffffffffff1681526020019081526020016000206000016000600160008573ffffffffffffffffffffffffffffffffffffffff1673ffffffffffffffffffffffffffffffffffffffff1681526020019081526020016000205481526020019081526020016000206002015414156105915742600960008373ffffffffffffffffffffffffffffffffffffffff1673ffffffffffffffffffffffffffffffffffffffff1681526020019081526020016000206000016000600160008573ffffffffffffffffffffffffffffffffffffffff1673ffffffffffffffffffffffffffffffffffffffff168152602001908152602001600020548152602001908152602001600020600201819055505b42600354600960008473ffffffffffffffffffffffffffffffffffffffff1673ffffffffffffffffffffffffffffffffffffffff1681526020019081526020016000206000016000600160008673ffffffffffffffffffffffffffffffffffffffff1673ffffffffffffffffffffffffffffffffffffffff16815260200190815260200160002054815260200190815260200160002060020154011115806106e35750600460009054906101000a900460ff1660ff16600960008373ffffffffffffffffffffffffffffffffffffffff1673ffffffffffffffffffffffffffffffffffffffff1681526020019081526020016000206000016000600160008573ffffffffffffffffffffffffffffffffffffffff1673ffffffffffffffffffffffffffffffffffffffff1681526020019081526020016000205481526020019081526020016000206001018054905010155b156107a3576106f1816113dc565b61074360018060008473ffffffffffffffffffffffffffffffffffffffff1673ffffffffffffffffffffffffffffffffffffffff16815260200190815260200160002054611b0b90919063ffffffff16565b600160008373ffffffffffffffffffffffffffffffffffffffff1673ffffffffffffffffffffffffffffffffffffffff1681526020019081526020016000208190555061079c6001600554611b0b90919063ffffffff16565b6005819055505b50565b6107ae6113d4565b73ffffffffffffffffffffffffffffffffffffffff166107cc6103a2565b73ffffffffffffffffffffffffffffffffffffffff1614610855576040517f08c379a00000000000000000000000000000000000000000000000000000000081526004018080602001828103825260208152602001807f4f776e61626c653a2063616c6c6572206973206e6f7420746865206f776e657281525060200191505060405180910390fd5b60008190508073ffffffffffffffffffffffffffffffffffffffff1663a9059cbb338373ffffffffffffffffffffffffffffffffffffffff166370a08231306040518263ffffffff1660e01b81526004016108b091906123a8565b60206040518083038186803b1580156108c857600080fd5b505afa1580156108dc573d6000803e3d6000fd5b505050506040513d601f19601f8201168201806040525081019061090091906120f0565b6040518363ffffffff1660e01b815260040161091d9291906123fa565b602060405180830381600087803b15801561093757600080fd5b505af115801561094b573d6000803e3d6000fd5b505050506040513d601f19601f8201168201806040525081019061096f919061209e565b505050565b6000819050610982826103cb565b600860008373ffffffffffffffffffffffffffffffffffffffff1673ffffffffffffffffffffffffffffffffffffffff16815260200190815260200160002060009054906101000a900460ff16610a9c576109e96001600654611b0b90919063ffffffff16565b6006819055508160076000600654815260200190815260200160002060006101000a81548173ffffffffffffffffffffffffffffffffffffffff021916908373ffffffffffffffffffffffffffffffffffffffff1602179055506001600860008473ffffffffffffffffffffffffffffffffffffffff1673ffffffffffffffffffffffffffffffffffffffff16815260200190815260200160002060006101000a81548160ff0219169083151502179055505b600060025490508173ffffffffffffffffffffffffffffffffffffffff1663313ce5676040518163ffffffff1660e01b815260040160206040518083038186803b158015610ae957600080fd5b505afa158015610afd573d6000803e3d6000fd5b505050506040513d601f19601f82011682018060405250810190610b219190612119565b60ff16600a0a8102905060008111610b6e576040517f08c379a0000000000000000000000000000000000000000000000000000000008152600401610b65906124a5565b60405180910390fd5b8173ffffffffffffffffffffffffffffffffffffffff166323b872dd610b926113d4565b30846040518463ffffffff1660e01b8152600401610bb2939291906123c3565b602060405180830381600087803b158015610bcc57600080fd5b505af1158015610be0573d6000803e3d6000fd5b505050506040513d601f19601f82011682018060405250810190610c04919061209e565b50610cad81600960008673ffffffffffffffffffffffffffffffffffffffff1673ffffffffffffffffffffffffffffffffffffffff1681526020019081526020016000206000016000600160008873ffffffffffffffffffffffffffffffffffffffff1673ffffffffffffffffffffffffffffffffffffffff16815260200190815260200160002054815260200190815260200160002060000154611b0b90919063ffffffff16565b600960008573ffffffffffffffffffffffffffffffffffffffff1673ffffffffffffffffffffffffffffffffffffffff1681526020019081526020016000206000016000600160008773ffffffffffffffffffffffffffffffffffffffff1673ffffffffffffffffffffffffffffffffffffffff16815260200190815260200160002054815260200190815260200160002060000181905550600960008473ffffffffffffffffffffffffffffffffffffffff1673ffffffffffffffffffffffffffffffffffffffff1681526020019081526020016000206000016000600160008673ffffffffffffffffffffffffffffffffffffffff1673ffffffffffffffffffffffffffffffffffffffff1681526020019081526020016000205481526020019081526020016000206001016040518060400160405280610dee6113d4565b73ffffffffffffffffffffffffffffffffffffffff1681526020016000815250908060018154018082558091505060019003906000526020600020906002020160009091909190915060008201518160000160006101000a81548173ffffffffffffffffffffffffffffffffffffffff021916908373ffffffffffffffffffffffffffffffffffffffff1602179055506020820151816001015550506000600960008573ffffffffffffffffffffffffffffffffffffffff1673ffffffffffffffffffffffffffffffffffffffff1681526020019081526020016000206000016000600160008773ffffffffffffffffffffffffffffffffffffffff1673ffffffffffffffffffffffffffffffffffffffff1681526020019081526020016000205481526020019081526020016000206001018054905090507fde387a41a2330e7fbde96f0e6b07fea681402849a7598a1d16d43757ce0be76c8183610f526113d4565b604051610f61939291906124e0565b60405180910390a150505050565b60008060606000600960008773ffffffffffffffffffffffffffffffffffffffff1673ffffffffffffffffffffffffffffffffffffffff1681526020019081526020016000206000016000868152602001908152602001600020600001549350600960008773ffffffffffffffffffffffffffffffffffffffff1673ffffffffffffffffffffffffffffffffffffffff1681526020019081526020016000206000016000868152602001908152602001600020600101805490509250600960008773ffffffffffffffffffffffffffffffffffffffff1673ffffffffffffffffffffffffffffffffffffffff1681526020019081526020016000206000016000868152602001908152602001600020600101805480602002602001604051908101604052809291908181526020016000905b8282101561113357838290600052602060002090600202016040518060400160405290816000820160009054906101000a900473ffffffffffffffffffffffffffffffffffffffff1673ffffffffffffffffffffffffffffffffffffffff1673ffffffffffffffffffffffffffffffffffffffff168152602001600182015481525050815260200190600101906110a1565b505050509150600960008773ffffffffffffffffffffffffffffffffffffffff1673ffffffffffffffffffffffffffffffffffffffff168152602001908152602001600020600001600086815260200190815260200160002060020154905092959194509250565b60006007600083815260200190815260200160002060009054906101000a900473ffffffffffffffffffffffffffffffffffffffff169050919050565b6000600654905090565b6111ea6113d4565b73ffffffffffffffffffffffffffffffffffffffff166112086103a2565b73ffffffffffffffffffffffffffffffffffffffff1614611291576040517f08c379a00000000000000000000000000000000000000000000000000000000081526004018080602001828103825260208152602001807f4f776e61626c653a2063616c6c6572206973206e6f7420746865206f776e657281525060200191505060405180910390fd5b600073ffffffffffffffffffffffffffffffffffffffff168173ffffffffffffffffffffffffffffffffffffffff161415611317576040517f08c379a00000000000000000000000000000000000000000000000000000000081526004018080602001828103825260268152602001806127376026913960400191505060405180910390fd5b8073ffffffffffffffffffffffffffffffffffffffff1660008054906101000a900473ffffffffffffffffffffffffffffffffffffffff1673ffffffffffffffffffffffffffffffffffffffff167f8be0079c531659141344cd1fd0a4f28419497f9722a3daafe3b4186f6b6457e060405160405180910390a3806000806101000a81548173ffffffffffffffffffffffffffffffffffffffff021916908373ffffffffffffffffffffffffffffffffffffffff16021790555050565b600033905090565b6000600960008373ffffffffffffffffffffffffffffffffffffffff1673ffffffffffffffffffffffffffffffffffffffff1681526020019081526020016000206000016000600160008573ffffffffffffffffffffffffffffffffffffffff1673ffffffffffffffffffffffffffffffffffffffff168152602001908152602001600020548152602001908152602001600020600101805480602002602001604051908101604052809291908181526020016000905b8282101561152557838290600052602060002090600202016040518060400160405290816000820160009054906101000a900473ffffffffffffffffffffffffffffffffffffffff1673ffffffffffffffffffffffffffffffffffffffff1673ffffffffffffffffffffffffffffffffffffffff16815260200160018201548152505081526020019060010190611493565b5050505090506000815190506000600960008573ffffffffffffffffffffffffffffffffffffffff1673ffffffffffffffffffffffffffffffffffffffff1681526020019081526020016000206000016000600160008773ffffffffffffffffffffffffffffffffffffffff1673ffffffffffffffffffffffffffffffffffffffff168152602001908152602001600020548152602001908152602001600020600001549050600084905060018314156117c05760008460018503815181106115ea57fe5b60200260200101516000015190508173ffffffffffffffffffffffffffffffffffffffff1663a9059cbb82856040518363ffffffff1660e01b815260040161163392919061245a565b602060405180830381600087803b15801561164d57600080fd5b505af1158015611661573d6000803e3d6000fd5b505050506040513d601f19601f82011682018060405250810190611685919061209e565b5060405180604001604052808273ffffffffffffffffffffffffffffffffffffffff16815260200184815250600960008873ffffffffffffffffffffffffffffffffffffffff1673ffffffffffffffffffffffffffffffffffffffff1681526020019081526020016000206000016000600160008a73ffffffffffffffffffffffffffffffffffffffff1673ffffffffffffffffffffffffffffffffffffffff168152602001908152602001600020548152602001908152602001600020600101600186038154811061175457fe5b906000526020600020906002020160008201518160000160006101000a81548173ffffffffffffffffffffffffffffffffffffffff021916908373ffffffffffffffffffffffffffffffffffffffff160217905550602082015181600101559050506000925050611a39565b60006117cc8684611b93565b90505b6000841180156117df5750600081115b15611a2d576000600182016117f388611c5f565b816117fa57fe5b0690506118108183611d2e90919063ffffffff16565b915060008561181e89611c5f565b8161182557fe5b069050600087828151811061183657fe5b60200260200101516000015190508473ffffffffffffffffffffffffffffffffffffffff1663a9059cbb82856040518363ffffffff1660e01b815260040161187f92919061245a565b602060405180830381600087803b15801561189957600080fd5b505af11580156118ad573d6000803e3d6000fd5b505050506040513d601f19601f820116820180604052508101906118d1919061209e565b5060405180604001604052808273ffffffffffffffffffffffffffffffffffffffff16815260200184815250600960008b73ffffffffffffffffffffffffffffffffffffffff1673ffffffffffffffffffffffffffffffffffffffff1681526020019081526020016000206000016000600160008d73ffffffffffffffffffffffffffffffffffffffff1673ffffffffffffffffffffffffffffffffffffffff16815260200190815260200160002054815260200190815260200160002060010160018903815481106119a057fe5b906000526020600020906002020160008201518160000160006101000a81548173ffffffffffffffffffffffffffffffffffffffff021916908373ffffffffffffffffffffffffffffffffffffffff16021790555060208201518160010155905050611a16600188611d2e90919063ffffffff16565b9650611a23828989611db1565b97505050506117cf565b611a378682611dee565b505b7fc96bc27d2165ac1ef1472c5f111a675305450f5da7239cf80a138eb2d5ef431d600960008773ffffffffffffffffffffffffffffffffffffffff1673ffffffffffffffffffffffffffffffffffffffff1681526020019081526020016000206000016000600160008973ffffffffffffffffffffffffffffffffffffffff1673ffffffffffffffffffffffffffffffffffffffff168152602001908152602001600020548152602001908152602001600020600101604051611afc9190612483565b60405180910390a15050505050565b600080828401905083811015611b89576040517f08c379a000000000000000000000000000000000000000000000000000000000815260040180806020018281038252601b8152602001807f536166654d6174683a206164646974696f6e206f766572666c6f77000000000081525060200191505060405180910390fd5b8091505092915050565b600080611bbd6064611baf600a86611ec190919063ffffffff16565b611f4790919063ffffffff16565b905060008490508073ffffffffffffffffffffffffffffffffffffffff1663a9059cbb30846040518363ffffffff1660e01b8152600401611bff92919061245a565b602060405180830381600087803b158015611c1957600080fd5b505af1158015611c2d573d6000803e3d6000fd5b505050506040513d601f19601f82011682018060405250810190611c51919061209e565b508184039250505092915050565b60004442600960008573ffffffffffffffffffffffffffffffffffffffff1673ffffffffffffffffffffffffffffffffffffffff1681526020019081526020016000206000016000600160008773ffffffffffffffffffffffffffffffffffffffff1673ffffffffffffffffffffffffffffffffffffffff16815260200190815260200160002054815260200190815260200160002060010180549050604051602001611d0e9392919061236b565b6040516020818303038152906040528051906020012060001c9050919050565b600082821115611da6576040517f08c379a000000000000000000000000000000000000000000000000000000000815260040180806020018281038252601e8152602001807f536166654d6174683a207375627472616374696f6e206f766572666c6f77000081525060200191505060405180910390fd5b818303905092915050565b60606000839050808381518110611dc457fe5b6020026020010151818681518110611dd857fe5b6020026020010181905250809150509392505050565b60008290508073ffffffffffffffffffffffffffffffffffffffff1663a9059cbb33846040518363ffffffff1660e01b8152600401611e2e9291906123fa565b602060405180830381600087803b158015611e4857600080fd5b505af1158015611e5c573d6000803e3d6000fd5b505050506040513d601f19601f82011682018060405250810190611e80919061209e565b507fe16c71711be8064fab24250016a482d4054b9bbe1e38c13ce97810d6b085d613338385604051611eb493929190612423565b60405180910390a1505050565b600080831415611ed45760009050611f41565b6000828402905082848281611ee557fe5b0414611f3c576040517f08c379a000000000000000000000000000000000000000000000000000000000815260040180806020018281038252602181526020018061275d6021913960400191505060405180910390fd5b809150505b92915050565b6000808211611fbe576040517f08c379a000000000000000000000000000000000000000000000000000000000815260040180806020018281038252601a8152602001807f536166654d6174683a206469766973696f6e206279207a65726f00000000000081525060200191505060405180910390fd5b818381611fc757fe5b04905092915050565b600081359050611fdf816126da565b92915050565b600081519050611ff4816126f1565b92915050565b60008135905061200981612708565b92915050565b60008151905061201e81612708565b92915050565b6000815190506120338161271f565b92915050565b60006020828403121561204b57600080fd5b600061205984828501611fd0565b91505092915050565b6000806040838503121561207557600080fd5b600061208385828601611fd0565b925050602061209485828601611ffa565b9150509250929050565b6000602082840312156120b057600080fd5b60006120be84828501611fe5565b91505092915050565b6000602082840312156120d957600080fd5b60006120e784828501611ffa565b91505092915050565b60006020828403121561210257600080fd5b60006121108482850161200f565b91505092915050565b60006020828403121561212b57600080fd5b600061213984828501612024565b91505092915050565b600061214e83836122c0565b60408301905092915050565b600061216683836122ef565b60408301905092915050565b61217b81612659565b82525050565b61218a81612604565b82525050565b61219981612604565b82525050565b60006121aa82612588565b6121b481856125b8565b93506121bf83612563565b8060005b838110156121f05781516121d78882612142565b97506121e28361259e565b9250506001810190506121c3565b5085935050505092915050565b600061220882612593565b61221281856125b8565b935061221d83612573565b8060005b8381101561224d5781612234888261215a565b975061223f836125ab565b925050600181019050612221565b5085935050505092915050565b60006122676028836125c9565b91507f6c6f747465727920616d6f756e74206d7573742062652067726561746572207460008301527f68616e207a65726f0000000000000000000000000000000000000000000000006020830152604082019050919050565b6040820160008201516122d66000850182612181565b5060208201516122e96020850182612336565b50505050565b6040820160008083015490506123048161268f565b6123116000860182612181565b5060018301549050612322816126a9565b61232f6020860182612336565b5050505050565b61233f81612642565b82525050565b61234e81612642565b82525050565b61236561236082612642565b6126c3565b82525050565b60006123778286612354565b6020820191506123878285612354565b6020820191506123978284612354565b602082019150819050949350505050565b60006020820190506123bd6000830184612190565b92915050565b60006060820190506123d86000830186612172565b6123e56020830185612190565b6123f26040830184612345565b949350505050565b600060408201905061240f6000830185612172565b61241c6020830184612345565b9392505050565b60006060820190506124386000830186612172565b6124456020830185612345565b6124526040830184612190565b949350505050565b600060408201905061246f6000830185612190565b61247c6020830184612345565b9392505050565b6000602082019050818103600083015261249d81846121fd565b905092915050565b600060208201905081810360008301526124be8161225a565b9050919050565b60006020820190506124da6000830184612345565b92915050565b60006060820190506124f56000830186612345565b6125026020830185612345565b61250f6040830184612172565b949350505050565b600060808201905061252c6000830187612345565b6125396020830186612345565b818103604083015261254b818561219f565b905061255a6060830184612345565b95945050505050565b6000819050602082019050919050565b60008190508160005260206000209050919050565b600081519050919050565b600081549050919050565b6000602082019050919050565b6000600282019050919050565b600082825260208201905092915050565b600082825260208201905092915050565b600073ffffffffffffffffffffffffffffffffffffffff82169050919050565b6000819050919050565b600061260f82612622565b9050919050565b60008115159050919050565b600073ffffffffffffffffffffffffffffffffffffffff82169050919050565b6000819050919050565b600060ff82169050919050565b60006126648261266b565b9050919050565b60006126768261267d565b9050919050565b600061268882612622565b9050919050565b60006126a261269d836126cd565b6125da565b9050919050565b60006126bc6126b7836126cd565b6125fa565b9050919050565b6000819050919050565b60008160001c9050919050565b6126e381612604565b81146126ee57600080fd5b50565b6126fa81612616565b811461270557600080fd5b50565b61271181612642565b811461271c57600080fd5b50565b6127288161264c565b811461273357600080fd5b5056fe4f776e61626c653a206e6577206f776e657220697320746865207a65726f2061646472657373536166654d6174683a206d756c7469706c69636174696f6e206f766572666c6f77a26469706673582212206d28c667d73ab6fa7aa4d880bcfba214e0c98bbc3e19a37f69613bbc8f107ccd64736f6c63430007060033",
  "immutableReferences": {},
  "source": "// SPDX-License-Identifier: MIT\npragma solidity >=0.6.0 <=0.8.0;\nimport \"@openzeppelin/contracts/token/ERC20/ERC20.sol\";\nimport \"@openzeppelin/contracts/math/SafeMath.sol\";\nimport \"@openzeppelin/contracts/utils/Context.sol\";\nimport \"@openzeppelin/contracts/access/Ownable.sol\";\npragma experimental ABIEncoderV2;\n\n//Rules:\n// Every 10 min lottery will be announced\n// Minimum ether value will be used for lottery\n// 50% will go to social cause.\n// with every annonced lottery, participant will get native token\n\ncontract LotteryContract is Ownable {\n    using SafeMath for uint256;\n    mapping(address => uint256) private _currentLotNumber;\n    uint256 private _lotteryAmount;\n    uint256 private _maxAnnounceTimeInSeconds;\n    uint8 private _defaultMaxWinners;\n    uint256 private _totalLotteries;\n    uint256 private _tokenCount;\n    mapping(uint256 => address) _tokenAddress;\n    mapping(address => bool) hasToken;\n    event LotteryBought(\n        uint256 currentParticipant,\n        uint256 lotteryAmount,\n        address participant\n    );\n    event WinnersList(Participant[] winner);\n    event Reward(address to, uint256 amount, address token);\n    struct Participant {\n        address participant;\n        uint256 winningAmout;\n    }\n    struct LotteryLot {\n        uint256 totalFund;\n        Participant[] participants;\n        uint256 lotteryStartedTime;\n        // mapping(address => bool) participated;\n    }\n\n    struct LotterieForSpecificToken {\n        mapping(uint256 => LotteryLot) lots;\n    }\n    mapping(address => LotterieForSpecificToken) private lotteryForToken;\n\n    constructor(\n        uint256 lotteryAmount,\n        uint64 maxAnnounceTimeInSeconds,\n        uint8 defaultMaxWinners\n    ) {\n        _lotteryAmount = lotteryAmount;\n        _maxAnnounceTimeInSeconds = maxAnnounceTimeInSeconds;\n        _defaultMaxWinners = defaultMaxWinners;\n        _totalLotteries = 1;\n        _tokenCount = 0;\n    }\n\n    function buyLottery(address token) external {\n        ERC20 tokenContract = ERC20(token);\n        checkRules(token);\n        if (!hasToken[token]) {\n            _tokenCount = _tokenCount.add(1);\n            _tokenAddress[_tokenCount] = token;\n            hasToken[token] = true;\n        }\n        uint256 lotteryAmount = _lotteryAmount;\n        lotteryAmount = lotteryAmount * (10 ** tokenContract.decimals()); // multiply by decimals\n        // require(\n        //     !lotteryForToken[token].lots[_currentLotNumber[token]].participated[\n        //         _msgSender()\n        //     ],\n        //     \"user has already participated in current lot\"\n        // );\n        require(lotteryAmount > 0, \"lottery amount must be greater than zero\");\n        tokenContract.transferFrom(_msgSender(), address(this), lotteryAmount);\n\n        lotteryForToken[token]\n            .lots[_currentLotNumber[token]]\n            .totalFund = lotteryForToken[token]\n            .lots[_currentLotNumber[token]]\n            .totalFund\n            .add(lotteryAmount);\n\n        lotteryForToken[token].lots[_currentLotNumber[token]].participants.push(\n            Participant(_msgSender(), 0)\n        );\n        // lotteryForToken[token].lots[_currentLotNumber[token]].participated[\n        //     _msgSender()\n        // ] = true;\n        uint256 participantsNumber = lotteryForToken[token]\n            .lots[_currentLotNumber[token]]\n            .participants\n            .length;\n        emit LotteryBought(participantsNumber, lotteryAmount, _msgSender());\n    }\n\n    function checkRules(address token) public {\n        if (_currentLotNumber[token] == 0) {\n            _currentLotNumber[token] = 1; // set initial lottery number if its first lot for token\n        }\n        if (\n            lotteryForToken[token]\n                .lots[_currentLotNumber[token]]\n                .lotteryStartedTime == 0\n        ) {\n            lotteryForToken[token]\n                .lots[_currentLotNumber[token]]\n                .lotteryStartedTime = block.timestamp; // set initial lottery time if its first lot for token\n        }\n\n        // lottery result rule\n        if (\n            lotteryForToken[token]\n                .lots[_currentLotNumber[token]]\n                .lotteryStartedTime +\n                _maxAnnounceTimeInSeconds <=\n            block.timestamp ||\n            lotteryForToken[token]\n                .lots[_currentLotNumber[token]]\n                .participants\n                .length >=\n            _defaultMaxWinners\n        ) {\n            pickWinner(token);\n\n            _currentLotNumber[token] = _currentLotNumber[token].add(1);\n            _totalLotteries = _totalLotteries.add(1);\n        }\n    }\n\n    function random(address token) private view returns (uint256) {\n        return\n            uint256(\n                keccak256(\n                    abi.encodePacked(\n                        block.difficulty,\n                        block.timestamp,\n                        lotteryForToken[token]\n                            .lots[_currentLotNumber[token]]\n                            .participants\n                            .length\n                    )\n                )\n            );\n    }\n\n    // Participant[] _participants;\n\n    function pickWinner(address token) private {\n        Participant[] memory _participants = lotteryForToken[token]\n            .lots[_currentLotNumber[token]]\n            .participants;\n        // Participant[] memory _afterResult;\n        uint256 participantsNumber = _participants.length;\n\n        uint256 totalFund = lotteryForToken[token]\n            .lots[_currentLotNumber[token]]\n            .totalFund;\n\n        ERC20 tokenContract = ERC20(token);\n\n        if (participantsNumber == 1) {\n            // if only one participant refund all amount\n            address currentWinnersAddress = _participants[\n                participantsNumber - 1\n            ].participant;\n            tokenContract.transfer(currentWinnersAddress, totalFund);\n            lotteryForToken[token].lots[_currentLotNumber[token]].participants[\n                participantsNumber - 1\n            ] = Participant(currentWinnersAddress, totalFund);\n            totalFund = 0;\n        } else {\n            uint256 totalRemainFund = commission(token, totalFund);\n\n            while (participantsNumber > 0 && totalRemainFund > 0) {\n                uint256 winingAmountForCurrentParticipant = random(token) %\n                    (totalRemainFund + 1);\n                totalRemainFund = totalRemainFund.sub(\n                    winingAmountForCurrentParticipant\n                );\n                uint256 randomWinner = random(token) % participantsNumber;\n                address currentWinnersAddress = _participants[randomWinner]\n                    .participant;\n                tokenContract.transfer(\n                    currentWinnersAddress,\n                    winingAmountForCurrentParticipant\n                );\n                lotteryForToken[token]\n                    .lots[_currentLotNumber[token]]\n                    .participants[participantsNumber - 1] = Participant(\n                    currentWinnersAddress,\n                    winingAmountForCurrentParticipant\n                );\n                participantsNumber = participantsNumber.sub(1);\n                _participants = removeWinner(\n                    randomWinner,\n                    _participants,\n                    participantsNumber\n                );\n            }\n            sendRemainBalanceToAnnouncer(token, totalRemainFund);\n        }\n\n        emit WinnersList(\n            lotteryForToken[token].lots[_currentLotNumber[token]].participants\n        );\n    }\n\n    function removeWinner(\n        uint256 winner,\n        Participant[] memory _participants,\n        uint256 swapWith\n    ) private pure returns (Participant[] memory) {\n        Participant[] memory swap = _participants;\n        swap[winner] = swap[swapWith];\n        return swap;\n    }\n\n    function getTotalTokenCount() external view returns (uint256) {\n        return _tokenCount;\n    }\n\n    function getToken(uint256 number) external view returns (address) {\n        return _tokenAddress[number];\n    }\n\n    function getCurrentLotteryNumber(\n        address token\n    ) external view returns (uint256) {\n        return _currentLotNumber[token];\n    }\n\n    function getDetails(\n        address token,\n        uint256 lotteryNumber\n    )\n        external\n        view\n        returns (\n            uint256 totalFund,\n            uint256 totalParticipants,\n            Participant[] memory participants,\n            uint256 lotteryStartedTime\n        )\n    {\n        totalFund = lotteryForToken[token].lots[lotteryNumber].totalFund;\n        totalParticipants = lotteryForToken[token]\n            .lots[lotteryNumber]\n            .participants\n            .length;\n        participants = lotteryForToken[token].lots[lotteryNumber].participants;\n        lotteryStartedTime = lotteryForToken[token]\n            .lots[lotteryNumber]\n            .lotteryStartedTime;\n    }\n\n    function sendRemainBalanceToAnnouncer(\n        address token,\n        uint256 remainAmount\n    ) private {\n        ERC20 tokenContract = ERC20(token);\n        tokenContract.transfer(msg.sender, remainAmount); // remaining amount to lottery announcer\n        emit Reward(msg.sender, remainAmount, token);\n    }\n\n    function withdrawEther(address token) public onlyOwner {\n        ERC20 tokenContract = ERC20(token);\n        tokenContract.transfer(\n            msg.sender,\n            tokenContract.balanceOf(address(this))\n        );\n    }\n\n    function commission(\n        address token,\n        uint256 amount\n    ) private returns (uint256) {\n        uint256 commission10Percentage = amount.mul(10).div(100);\n\n        ERC20 tokenContract = ERC20(token);\n        tokenContract.transfer(address(this), commission10Percentage);\n\n        return amount - commission10Percentage;\n    }\n}\n",
  "sourcePath": "/Users/manan/mind place/SmartContract/Autonomous-Lottery-Smart-Contract/contracts/LotteryContract.sol",
  "compiler": {
    "name": "solc",
    "version": "0.7.6+commit.7338295f.Emscripten.clang"
  },
  "schemaVersion": "3.4.16",
  "updatedAt": "2024-03-19T17:47:42.364Z",
  "devdoc": {
    "kind": "dev",
    "methods": {
      "owner()": {
        "details": "Returns the address of the current owner."
      },
      "renounceOwnership()": {
        "details": "Leaves the contract without owner. It will not be possible to call `onlyOwner` functions anymore. Can only be called by the current owner. NOTE: Renouncing ownership will leave the contract without an owner, thereby removing any functionality that is only available to the owner."
      },
      "transferOwnership(address)": {
        "details": "Transfers ownership of the contract to a new account (`newOwner`). Can only be called by the current owner."
      }
    },
    "version": 1
  },
  "userdoc": {
    "kind": "user",
    "methods": {},
    "version": 1
  }
}